:020000040800F2
:10000000303D002025040008C3510008794B00084A
:10001000C151000851210008556900080000000086
:100020000000000000000000000000006503000860
:100030005321000800000000C10300087D5700089C
:100040003F0400083F0400083F0400083F04000884
:100050003F0400083F0400083F0400083F04000874
:100060003F0400083F0400083F0400083F04000864
:100070003F0400083F0400083F0400083F04000854
:100080003F0400083F0400083F0400083F04000844
:100090003F040008C52100083F0400083F04000891
:1000A0003F0400083F0400083F0400083F04000824
:1000B0003F0400083F0400083F0400083F04000814
:1000C0003F0400083F0400083F0400083F04000804
:1000D0003F04000859680008656800087168000856
:1000E0003F0400083F0400083F0400083F040008E4
:1000F0003F0400083F0400083F0400083F040008D4
:10010000000000003F040008000000003F04000859
:100110003F0400083F040008115800083F0400088D
:100120003F0400083F0400083F0400083F040008A3
:100130003F04000800000000000000003F04000829
:100140003F0400083F040008000000000000000019
:10015000000000000000000000000000000000009F
:100160000000000000000000000000003F04000844
:100170003F0400083F0400083F0400083F04000853
:100180003F0400083F0400080000000000000000D9
:1001900000000000000000003F0400083F040008C9
:1001A00000000000000000003F0400083F040008B9
:1001B0003F0400083F0400083F0400083F04000813
:1001C0003F0400083F0400083F0400083F04000803
:1001D0003F0400083F04000800F002F800F0B2F805
:1001E0000AA090E8000C82448344AAF10107DA4592
:1001F00001D100F0A7F8AFF2090EBAE80F0013F032
:10020000010F18BFFB1A43F0010318476C9400005C
:100210008C9400000A444FF0000C10F8013B13F0DE
:10022000070408BF10F8014B1D1108BF10F8015B4F
:10023000641E05D010F8016B641E01F8016BF9D142
:1002400013F0080F1EBF10F8014BAD1C0C1B09D199
:100250006D1E58BF01F801CBFAD505E014F8016B0B
:1002600001F8016B6D1EF9D59142D6D3704700009D
:100270000023002400250026103A28BF78C1FBD8AF
:10028000520728BF30C148BF0B6070476E2900F08D
:100290005D84702900F0D781662908F07B84652988
:1002A00008F07884672908F07584612908F074845F
:1002B00003681B0A28BF41F08001692900F00A8405
:1002C000642900F00784752900F004846F2900F088
:1002D0003C87782900F0A381E92900F0D786E4293A
:1002E00000F0D486F52900F0D186EF2900F0398797
:1002F000F82900F0A2810368DB0928BF41F08001E2
:10030000632901F0A781732901F0AC81E32901F091
:10031000B781F32901F0BC81002070471FB508F0B8
:1003200034FC00F081FF04000020002108F06AFB8B
:10033000401C60600020002108F04EFBE0601FBD03
:1003400010B510BD01F03AFA1146FFF7E7FF06F0CD
:1003500009FF01F061FA03B4FFF7F2FF03BC06F0F6
:10036000B0FD00002C4B19680868B0E8F04F80F32E
:100370000988BFF36F8F4FF0000080F3118870473A
:100380000000000008480068006880F308884FF00B
:10039000000080F3148862B661B6BFF34F8FBFF3DD
:1003A0006F8F00DF00BF00BF08ED00E0DFF80C003A
:1003B000016841F470010160704700BF88ED00E002
:1003C000EFF30980BFF36F8F134B1A681EF0100F05
:1003D00008BF20ED108A20E9F04F106009B44FF0FB
:1003E000500080F31188BFF34F8FBFF36F8F07F07A
:1003F000C5FD4FF0000080F3118809BC196808683A
:10040000B0E8F04F1EF0100F08BFB0EC108A80F378
:100410000988BFF36F8F704710000020EFF305804D
:10042000704700000948804709480047FEE7FEE79B
:10043000FEE7FEE7FEE7FEE7FEE7FEE7FEE7FEE794
:1004400004480549054A064B70470000015800085A
:10045000D901000830370020303D0020303900201D
:1004600030390020704753EA020C00F069802DE912
:10047000F04B4FF00006002B1FBFB3FA83F503FAD1
:1004800005F424FA05F65E4012BF1643B2FA82F56F
:1004900002FA05F4C5F120051EBF22FA05FC44EA64
:1004A0000C04203556EA044C4FEA144418BF641C6F
:1004B0004FF000084FF00009904271EB030C39D364
:1004C000002919BFB1FA81F701FA07F6B0FA80F7EF
:1004D00000FA07F6C7F120071EBF20FA07FC46EA1C
:1004E0000C062037B6FBF4FCA7EB0507103F07F01E
:1004F0001F0BCBF120060CFA0BFB2CFA06F644BFBF
:10050000B3460026202FA4BF5E464FF0000B5BEAE7
:10051000060C08BF4FF0010B19EB0B09ABFB027C7B
:1005200048EB0608C01B06FB02CC0BFB03CC71EBAF
:100530000C01C1E70B46024641464846BDE8F08B38
:1005400013B54FF000004FF00001AFF30080BDE89D
:100550001C4070471CB50C46064B7B446946009016
:10056000204600F01CFD04460020694600F02AFDEC
:1005700020461CBD670A000070B504468569006806
:10058000C10601D5302600E02026C00707D070BD87
:10059000D4E9012130469047206A401C20626D1E3C
:1005A000F6D570BD70B5044685690078C00707D1DF
:1005B00070BDD4E9012120209047206A401C2062B0
:1005C0006D1EF6D570BD0000F0B40D46018809051A
:1005D00002D5214C7C4402E01F4C7C440E340021A7
:1005E00000F1240608E002F00F071209E75D42EA75
:1005F00003721B097754491C52EA0307F3D10278AE
:100600000023120704D5702D06D009B1022311343E
:100610002246F0BC00F004BA01231034F8E770B5AC
:1006200004460D462146106800F0C8F902462946E6
:100630002046BDE870400023C6E7D21D22F0070324
:10064000D3E90023C0E70368126843F02003036086
:100650000823C3610023B7E7388F00002DE9F05F5E
:10066000894604464FF0000ADFF874B1FB44C0F835
:1006700020A02046E1688847002874D0252806D0AD
:10068000D4E901219047206A401C2062F1E700264E
:100690005F462046E16888472028054607DB312D64
:1006A00005D2781910F8200C08B10643F1E7B0071D
:1006B00001D526F00406C4F81CA00027C4F818A031
:1006C0002A2D09D0284606F0F5FB38B304EB87083D
:1006D000303DC8F8185019E059F8041B204604EBC7
:1006E00087029161E1688847012F054618D1E069CA
:1006F000002820DA26F020061DE0D8F8180000EBCC
:10070000800005EB40003038C8F818002046E1684A
:100710008847054606F0CEFB0028EED1012F0AD00F
:100720002E2D08D12046E16888477F1C0546022F00
:1007300046F02006C4DBA069002803DA404246F0F8
:100740000106A061F00701D026F010066C2D0BD039
:10075000682D09D04C2D39D06A2D35D0742D35D067
:100760007A2D33D016E038E0E1682F4620468847DE
:10077000B842054609D16C2F26D04FF48060E1685D
:10078000064320468847054604E06C2F1AD04FF4F4
:10079000807006430DB3A5F14100192802D8203519
:1007A00046F400664A462946204626604E46FFF734
:1007B0006DFD80B101280BD0F61D26F0070000F179
:1007C000080956E74020E4E78020D8E70020D6E774
:1007D00006F104094DE7284652E7206ABDE8F09F7C
:1007E000C88E000010B5431C02E010F8011B71B167
:1007F0008107FAD14FF0013202C88C1A8C4314EAF7
:10080000C211F9D0C01A0A0603D0C01E10BDC01A0A
:1008100010BD0A0401D0801E10BD0902FCD0401E8C
:1008200010BD032A40F2308010F0030C00F0158058
:1008300011F8013BBCF1020F624498BF11F801CBE3
:1008400000F8013B38BF11F8013BA2F1040298BF48
:1008500000F801CB38BF00F8013B11F0030300F0B2
:100860008B84083AC0F0088051F8043B083A51F8EC
:1008700004CBA0E80810F5E7121D5CBF51F8043B5B
:1008800040F8043BAFF30080D20724BF11F8013BCE
:1008900011F801CB48BF11F8012B24BF00F8013B30
:1008A00000F801CB48BF00F8012B704702F0FF03AE
:1008B00043EA032242EA024200F092BC4FF00002F7
:1008C00000B5134694469646203922BFA0E80C5046
:1008D000A0E80C50B1F12001BFF4F7AF090728BF21
:1008E000A0E80C5048BF0CC05DF804EB890028BF9D
:1008F00040F8042B08BF704748BF20F8022B11F0C6
:10090000804F18BF00F8012B704700004FF0013CEA
:1009100050F8042B51F8043B9A4221D1A2EB0C036E
:10092000934313EACC1317D150F8042B51F8043B2E
:100930009A4215D1A2EB0C03934313EACC130BD1CB
:1009400050F8042B51F8043B9A4209D1A2EB0C0356
:10095000934313EACC13DBD04FF00000704700BF85
:10096000D01A01BAB1FA81F101F0180122FA01F0AE
:10097000CB40C1F12001DBB2C0B2C01A2CFA01F3A6
:10098000D11A914311EAC311E6D1704770477047FD
:100990007047704710B500F04BFC006810BD10B5F3
:1009A000044600F045FC046010BD09684A0501D505
:1009B00040B27047C905FCD500B2704709684A05C6
:1009C00001D5C0B27047C905FCD580B2704770B57B
:1009D0000C460546012A05D02878800600D5EA692C
:1009E000002302E0012305E05B1C934202D2E05C9D
:1009F0000028F9D1A869E618C01AA861286A184425
:100A000028622846FFF7B8FD04E0D5E9012114F873
:100A1000010B9047B442F8D32846FFF7C3FD70BDE1
:100A20002DE9F0470D4699469246044600F1240808
:100A30000168880604D5E06921F01001216000E01A
:100A40000120A84201DD471B00E00027A1697A19B7
:100A500002EB0900081AA0612078C00602D42046E3
:100A6000FFF78AFD002608E0D4E901211AF8060004
:100A70009047206A401C761C20624E45F4DB2078AB
:100A8000C0060AD52046FFF777FD06E0D4E901212C
:100A900030209047206A401C2062381EA7F10107D1
:100AA000F4DC07E0D4E9012118F805009047206A3A
:100AB000401C2062281EA5F10105F3DC2046FFF74B
:100AC00071FD2078000602D50220BDE8F0870120E4
:100AD000FBE700002DE9F041064600241068752967
:100AE000314616A510D0FFF760FF002802DA404219
:100AF00013A507E031688A0701D512A502E049076E
:100B000004D511A5012401E0FFF758FF00210A22B6
:100B100006F1240709E0B0FBF2FCB0FBF2F302FBA4
:100B20001C00303078541846491C0028F3D1234665
:100B30002A463046BDE8F041FFF772BF00000000D2
:100B40002D0000002B00000020000000116802684A
:100B5000006A530501D508700AE0D30501D5088065
:100B600006E0130603D5C217C1E9000200E00860E1
:100B70000120704770472DE9FF4F0C461E464FF08D
:100B8000FF378BB0D2E90001DDF860800A908A4619
:100B9000C1F30A5505B93D46002108464FF0000053
:100BA000BAF1000F00F4400005DA00EB80004FF4CA
:100BB000400101EA50004FEA9059B9F1010F00DD00
:100BC000B9460A9850EA4A000ED044F61050A5F2F1
:100BD000FF3545432F14B8F1000F1ED07542291E72
:100BE0001EDDC9F100021CE0B8F1010F4FF000005A
:100BF00001D0302103E0F24305E02154401CB04213
:100C0000FBDB30460022002121540B99C1F80880FB
:100C1000C1E900200FB0BDE8F08FBD1B6D1CDEE701
:100C20004A4600DA694206A800F036FD06AB93E8B2
:100C3000070003AB83E8070050460A9900F0F5FD72
:100C40008DE80700A0F500501F3800900398002D94
:100C50000ADD42F21F014A460844002303A903901B
:100C6000684601F05EF809E0A0F500504A461F38DA
:100C7000002303A90390684601F068F88DE8070097
:100C80000004000C03D04FF0FF30410800E0104694
:100C9000B8F1000F03D00022009215461EE0751E29
:100CA00005D400F0C9FA303262556D1EF9D5B3464D
:100CB0000122084302D000227F1C04E02078302863
:100CC00001D100227F1E002A099784D01DE0112D3A
:100CD00007DA00F0B1FA303262556D1C50EA0102B9
:100CE000F5D1084302D00098C8B10EE00021681E7B
:100CF00005E0235C625C63542254401E491C81421F
:100D0000F7DBAB46A81B401E0990002004F80B003F
:100D10000B98099AC0F80880C0E9002B7AE71126E1
:100D20004FF0000857E72DE9F04F88460446D21DE2
:100D300022F0070191B0D1E90001CDE90A0105F0E7
:100D40000AFE02460B98C00F01D02D2007E0206854
:100D5000810701D52B2002E0202101EAC000032AEF
:100D6000099001D0072A05DB03464146204600F0E2
:100D700027FC0BE12078800601D5E06900E0062021
:100D8000B8F1650F814606D0B8F1660F18D0B8F1FA
:100D9000670F70D131E00020B9F1110F009001DB35
:100DA000112301E009F101030AAA01A90CA8FFF728
:100DB000E2FEDDE90C70002609F10105834647E0FB
:100DC00001204B4600904FF000470AAA01A90CA849
:100DD000FFF7D1FEDDE90DB00C995D46002610B994
:100DE00009F101000D18B9EB050003D4C0F1FF367D
:100DF00009F10105A5EB09002BE0B9F1010F01DABA
:100E00004FF001090020B9F1110F0090484601DDB3
:100E1000112300E003460AAA01A90CA8FFF7ABFEC4
:100E2000DDE90C704D4600268346207800070AD481
:100E3000AB4500DA5D4601A8012D04DD411911F82A
:100E4000011C302907D04F4502DA17F1040F04DAEC
:100E5000012082460FE06D1EEEE7002F02DCED1B45
:100E60003E4403E0781CA84200DD7D1CB81B00F165
:100E7000010A4FF000472078000703D4AA4501DBA0
:100E80004FF0FF3A0021B7F1004F0DF143088DF804
:100E9000431024D002202B23002F01DA7F422D2380
:100EA0000A21021EA0F1010000DC5FB197FBF1FCFA
:100EB00097FBF1F201FB1C7C17460CF1300C08F893
:100EC00001CDEEE7A8F1010003702188090501D5E5
:100ED000452100E06521A0F1010800F8011C0998F6
:100EE0000FA9A1EB0807FF1D00B10120411901EB7B
:100EF000EA70A1693844081A401EA0612078C00633
:100F000002D42046FFF738FB099828B1D4E9012123
:100F10009047206A401C20622078C00622D52046D7
:100F2000FFF72AFB1EE0002E04DBB34502DD01A81B
:100F3000805D00E03020D4E901219047206A401C08
:100F40002062761CAAF101005FEA000A0AD100F0D3
:100F50006BF9C0680168405CD4E901219047206AC0
:100F6000401C2062281EA5F10105DCDC07E0D4E965
:100F7000012118F8010B9047206A401C2062381E9E
:100F8000A7F10107F3DC2046FFF70CFB032011B0AB
:100F900041E6000001694A1C02610878704700B50B
:100FA0008FB0CDE901310021059105497944CDE9A2
:100FB000031011466846FFF751FB0FB000BD00005B
:100FC000E5FFFFFF0A6802F8010B0A6070470000A6
:100FD0002DE9FF5F15468A460446DFF8AC80F844E9
:100FE0000027D8E900103E46CDE9001010E03AF89D
:100FF00016106A4602A800F0C1FB411C07D02178F8
:10100000890603D5E269391891420DD80744761C48
:101010002078800602D5E069B84205DDAE42E6DB05
:101020003AF816000028E2D1A069C01BA061204652
:10103000FFF7A2FAD8E90010CDE90010002017E070
:101040003AF818106A4602A800F098FBB0F1FF3F8A
:1010500081460BD000250DF1080B05E0D4E90121F4
:101060001BF8050090476D1C4D45F7D308F10100B2
:10107000B0428046E4DB206A384420622046FFF715
:1010800091FABDE8FF9F00006A8500002DE9F0415C
:101090008046D21D22F007020025D2E90002F52980
:1010A00015A614D0011E72F1000106DA0023D0EB60
:1010B000030063EB020211A608E0D8F800108B07CA
:1010C00001D50FA602E0490701D50EA6012511465C
:1010D000002408F1240704E000F0AEF830323A555D
:1010E000641C50EA0102F7D12B46324621464046A5
:1010F000BDE8F041FFF794BC000000002D000000A7
:101100002B0000002000000030B4002100F1240476
:1011100008E002F00705D208303542EA4372DB08E6
:101120006554491C52EA0305F3D10468002310A258
:10113000250707D5A40600D421B1C46901230DA257
:10114000641EC46130BCFFF76BBC10B50446214679
:101150001068FFF733FC02462046BDE8104000232C
:10116000D2E7D21D22F00701D1E90023CCE700002D
:10117000000000003000000010B5203AC0F00B80E5
:10118000B1E81850203AA0E81850B1E81850A0E88B
:101190001850BFF4F5AF5FEA027C24BFB1E81850E5
:1011A000A0E8185044BF18C918C0BDE810405FEA55
:1011B000827C24BF51F8043B40F8043B08BF7047D1
:1011C000D20728BF31F8023B48BF11F8012B28BFD6
:1011D00020F8023B48BF00F8012B70474FF0000297
:1011E0000429C0F0128010F0030C3FF469ABCCF17D
:1011F000040CBCF1020F18BF00F8012BA8BF20F8A7
:10120000022BA1EB0C01FFF75BBB5FEAC17C24BFA3
:1012100000F8012B00F8012B48BF00F8012B7047A4
:1012200000487047CC36002000487047EC3600205C
:1012300000487047CC36002030B5B0F10A024FEAC2
:10124000900E71F100034EEA817EB0EB0E0061EB6F
:1012500091014FEA101E4EEA017E10EB0E0041EBA9
:1012600011114FEA102E4EEA016E10EB0E0041EB09
:1012700011214FEA104E4EEA014E10EB0E0041EBE9
:101280001141401841F100014FEAD00040EA41709D
:101290004FEAD10110EB80054FEA810444EA9074D3
:1012A00044EB01046D1944EB0404521BA3414FF0BD
:1012B000000348BF0A3200D530BD401C41F1000197
:1012C00030BD00002DE9F04F04460D46D21D22F03E
:1012D000070089B0D0E900974846394605F03BFB46
:1012E0000246F80F01D02D2307E02068810701D5C1
:1012F0002B2302E0202101EAC0038DF820300BB13E
:10130000012000E00020032A824601D0072A04DBE6
:101310002946204600F054F93FE12078800601D4A8
:101320000D2500E0E569C7F30A560D2D49DA0021C5
:101330004FEA175B08464FF00000002F00F4400012
:1013400007DA00EB80004FF4400100EBD07001EAB7
:1013500060008115012901DD4FF0FF3100224FEAC5
:10136000850CBCF1180F06D31346ACF118004FF0F2
:101370008052C24003E04FF4801323FA0CF30CF1C7
:101380000C0CBCF1200F04D3ACF1200C09FA0CF0CA
:1013900001E007FA0CF000294FF0004801DD18B910
:1013A0000FE00ED140450CD319EB02095F4121B982
:1013B000404502D19F4329EA0209BBEB175F00D0E9
:1013C000761C2088000502D57B48784402E07A48E4
:1013D0007844193808AA302302F80A30037C0AF14D
:1013E0000101002E0AF1020A53546A4602DC4FF052
:1013F000300101E04FF031014FF001088DF800108D
:1014000002D0A6F2FF3603E059EA470100D06B4E46
:10141000002D02DC2178090704D54FF002082E21A7
:101420008DF80110C44600210BE0C7F303433F01D0
:10143000C35C491C6D1E02F80830052908F101083B
:1014400001DA002DF1DC00210CE000EB1973491CDE
:101450001B786D1E082902F808304FEA091908F1B7
:10146000010801DA002DF0DC21688B0602D516E0B8
:10147000A8F10108E04505DD02EB080313F8013C83
:10148000302BF5D0B8F1000F09DD02EB080313F89B
:10149000013C2E2B03D1090701D4A8F10108002D2E
:1014A00005DD3E2102F808106D1E08F10108407CA0
:1014B000002E02F8080008F1010804DA2D20764217
:1014C00002F8080002E02B2002F808000A214FF47D
:1014D0007A70864208F101080BDB96FBF0F330339B
:1014E00002F8083096FBF0F308F1010800FB1366E0
:1014F00001E0642E0CDB642096FBF0F3303302F83D
:10150000083096FBF0F308F1010800FB136601E0D8
:101510000A2E06DB96FBF1F0303002F8080008F1E5
:10152000010896FBF1F001FB1060303002F8080072
:10153000A16908F1010808EB050202EB0A00081A8C
:10154000A0612078C00602D42046FFF715F8216A72
:1015500008AE01EB0A00206204E0D4E9012116F88C
:10156000010B9047BAF1010AF7D22078C00602D5E4
:101570002046FFF701F86E4609E016F8010B3E28F9
:101580000FD0D4E901219047206A401C2062B8F1B5
:101590000108F2D22046FFF705F809B00320BDE8A4
:1015A000F08F206A2844206203E0D4E90121302032
:1015B00090476D1EEBD3F8E7B981000002FCFFFFF6
:1015C0002DE9F0411F46044603260168072A01F46D
:1015D000006004DB08B116A505E016A503E008B11C
:1015E00015A500E015A521F010002060A069C01E1F
:1015F000A0610FB1401EA0612046FEF7BDFF4FB1B4
:10160000D4E9012138469047206A401C2062C01C62
:10161000206206E0206AFAE7D4E9012115F8010BFF
:101620009047761EF8D22046FEF7BCFFBDE8F08159
:101630004E414E006E616E00494E4600696E660076
:1016400010B5436913B1AFF3008001E0FFF7BFF9B4
:10165000012010BD127800F124010A7000224A70A6
:101660000122EDE711684FF0FF32E9E710B5436959
:1016700013B1AFF3008001E0FFF7AAFC012010BD19
:10168000128800F1240182840022C2840122EDE745
:1016900011684FF0FF32E9E72DE9F0478146164621
:1016A0008AB0354878440DC88DE80D00324878443A
:1016B000801C03AC0DC884E80D0041F69B30084443
:1016C000372190FBF1F290FBF1F5A5F1800501FBCC
:1016D00012041B3C02D56442012000E00020DFF828
:1016E00098A080460027FA44AAF1BE0A0EE0E0075F
:1016F0000AD03246684607EB470101230AEB810115
:1017000000F024FB8DE8070064107F1C002CEED154
:10171000194F7F44AE3F19E0E80715D007EB0410DE
:101720000DF1180A90E80E008AE80E00C068F04239
:1017300001D1981908903246012306A903A800F0A8
:1017400005FB03AB83E807006D10641C002DE3D19B
:101750004FF0010332466946B8F1000F03A802D0EA
:1017600000F0DFFA01E000F0F1FAC9E90001C9F880
:1017700008200AB0BDE8F087707F000070B51646FB
:101780000C46054600F040F8036893F80101012873
:1017900006D0FF2C0FD8185D68B101202C7070BDE9
:1017A000D3F807013246214603F2071303442846C3
:1017B000BDE8704018474FF0FF3070BD7546FFF729
:1017C0002FFDAE4605006946534620F007008546CA
:1017D00018B020B5FEF734FEBDE820404FF00006FB
:1017E0004FF000074FF000084FF0000B21F0070109
:1017F000AC46ACE8C009ACE8C009ACE8C009ACE84C
:10180000C0098D467047000010B5FFF70DFD001DA3
:1018100010BD00BFF171000010B50446AFF30080A9
:101820002046BDE81040FEF796BD5FEA400C08BFB9
:1018300091F0000F4FEA8C234FEAC12243EA515145
:101840004FEA1C5018BF00F5F0404FEA300018BFB7
:1018500041F000415FEA6C5C00F02980BCF1FF3F81
:1018600008BF40F080407047130C06BF12044FF0D1
:10187000100C4FF0000C130E04BF12020CF1080CF8
:10188000130F04BF12010CF1040C930F04BF92005C
:101890000CF1020CD30F04BF52000CF1010C1146E5
:1018A0004FF00002A0F11F00A0EB0C00704711F0F8
:1018B000004F08BF704731F000413FF4D5AF0B0C2B
:1018C00006BF09044FF0100C4FF0000C0B0E04BFC4
:1018D00009020CF1080C0B0F04BF09010CF1040CF8
:1018E0008B0F04BF89000CF1020CCB0F04BF490021
:1018F0000CF1010CCCF12003A0EB0C0022FA03F355
:1019000002FA0CF241EA030100F10100704720F0F5
:101910007F4C80EA030023F07F47ACEB070303F51D
:101920007C5300F0004003F1FF032DE980494FEAAA
:10193000154B09B44FEA144325EA0B4E24EA034839
:101940000FF2042606EB132749083E785FEA3202BD
:1019500003FB0667C7F5000707FB06F64FEA543797
:101960004FEAD64606F1020607FB066CCCF1005C96
:101970004FEA1C472CEA074C07FB06F40CFB06F564
:1019800004EB15464FEA961634BF00204FF0004096
:101990004FEAD13706FB07FC4FEA1C4C0CFB0BF758
:1019A000D21B03FB0CF761EB07010CFB0EF7B0EB4E
:1019B000074072EB17420CFB08F734BFA2EB07425B
:1019C000B2EB074261EB17414FEA0C444FEA910733
:1019D00006FB07FC4FEA1C4C0CFB0BF7B0EBC740B7
:1019E00072EB573203FB0CF734BFA2EBC742B2EBEA
:1019F000C74261EB57310CFB0EF7B0EBC70072EB3F
:101A000057720CFB08F734BFA2EBC702B2EBC70258
:101A100061EB5771039F4FEA816141EA921104EB38
:101A2000CC044FEAD1374FEA826206FB07FC42EA58
:101A300090124FEA80604FEA1C4C0CFB0BF7D21B54
:101A400003FB0CF761EB07010CFB0EF7B0EB074053
:101A500072EB17420CFB08F734BFA2EB0742B2EB64
:101A6000074261EB17414FEA8C554FEA910704EBAF
:101A70009C2406FB07FC4FEA1C4C0CFB0BF7B0EB5D
:101A8000C74072EB573203FB0CF734BFA2EBC742DF
:101A9000B2EBC74261EB57310CFB0EF7B0EBC7005E
:101AA00072EB57720CFB08F734BFA2EBC702B2EB24
:101AB000C70261EB577115EB4C254FEA816141EA92
:101AC00092114FEA82624FEAD13742EA901206FB46
:101AD00007FC44F100044FEA80604FEA1C4C0CFB09
:101AE0000BF7D21B03FB0CF761EB07010CFB0EF7A6
:101AF000B0EB074072EB17420CFB08F734BFA2EBC8
:101B00000742B2EB074261EB174115EB1C154FEA98
:101B1000813141EA92414FEA823242EA90424FEAF1
:101B200080304FEA0C7644F1000448EA03434EEA61
:101B30000B484FF0000EB2EB080C71EB030724BF0B
:101B4000624639464EEB0E0E4FF0000B0018524124
:101B500049414BEB0B0BB2EB080C71EB03077BF12C
:101B6000000B24BF624639464EEB0E0E4FF0000BC1
:101B70000018524149414BEB0B0BB2EB080C71EBD7
:101B800003077BF1000B24BF624639464EEB0E0E75
:101B900051EA020718BF46F0010616EB0E7655F122
:101BA000000254F1000103D5BDE88901BDE80088B9
:101BB000BDE88901BDE80048B619524141EB010179
:101BC000A3F10103704780807F7E7D7C7B7A7978EA
:101BD000777676757473727171706F6E6E6D6C6CF2
:101BE0006B6A6A6968686766666564646363626194
:101BF0006160605F5F5E5E5D5D5C5C5B5B5A5A5915
:101C00005958585757565655555554545353525280
:101C10005251515050504F4F4F4E4E4D4D4D4C4CD8
:101C20004C4B4B4B4A4A4A49494948484847474721
:101C3000474646464545454444444443434343425E
:101C4000424242414141002B9C4630D477002BD088
:101C50001CB54FEA370703B44FF010004FF01001E6
:101C6000BAF1000F06D0BCF1000FDCBF40F0080055
:101C700040F008014FF000000FBCBDE810400BF130
:101C8000010BBBF1010F08BF5FEA170722BF12F17A
:101C9000010211F101014FF0004143F1000300F096
:101CA000004043EA00007047F9D35708D0E746EAFE
:101CB000064613F1400F4FEA16461FDD13F1200FC1
:101CC000DFBF16430A46002120335B42BED0C3F17A
:101CD000200746EA064602FA07F74FEA164646EAA2
:101CE0000706C3F1200722FA03F201FA07F721FAE7
:101CF00003F14FF0000342EA0702A7E746EA0206B3
:101D000046EA06464FEA164646EA0106BCBF46EAE0
:101D10000646360C4FF000034FF000024FF0000172
:101D200094E72DE9804C9A46934670B491E83800C8
:101D300007C831EA400C48BF34EA430C03D5FFF72B
:101D4000E6FDFFF780FFF0BCBDE8008C2DE9804C7C
:101D50009A46934670B491E8380007C810F0804F57
:101D600008BF13F0804F03D100F005F8FFF76BFFB9
:101D7000F0BCBDE8008C20F07F4780EA030023F030
:101D80007F4C07EB0C03A3F57C5300F00040A3F15C
:101D9000FE0392F0000F00F0B38095F0000F00F00A
:101DA00077802DE901494FEA11404FEA144621EAB4
:101DB000004800FB06FC24EA064708FB06F607FB82
:101DC00008F800FB07F718EB06484CEB164C4FEAF7
:101DD000124B18EB07484FEA15464CEB174022EA26
:101DE0000B4E0BFB06FC25EA06470EFB06F607FB2F
:101DF0000EFE0BFB07F71EEB064E4CEB164C4FF09E
:101E000000061EEB074E4CEB174B18EB0B0840F18E
:101E1000000018EB0E0B58EB000840F100008F1A81
:101E20004FF000013CBFC943661B14BFB5EB040C67
:101E300000213CBFC943F61B4FEA17444EEA8E0E01
:101E400027EA04454FEA1C4704FB07622CEA074CCB
:101E500005FB07F70CFB05F604FB0CFC16EB07462D
:101E600042EB174216EB0C4642EB1C421BEB0606FC
:101E700058EB0202414146EA9E0601D5BDE80189C0
:101E8000B619524141EB0101A3F10103BDE80189FB
:101E90004FEA14454FEA114724EA054621EA074C68
:101EA00005FB07F406FB07F70CFB06F105FB0CFC32
:101EB00011EB074144EB17444FEA124711EB0C4179
:101EC00044EB1C4422EA074C05FB07F206FB07F72C
:101ED0000CFB06F605FB0CFC16EB074642EB174223
:101EE00016EB0C4642EB1C456A1854F1000148BF42
:101EF0007047B619524141EB0101A3F1010370474C
:101F000095F0000F37D04FEA11424FEA144721EA0B
:101F1000024624EA074C02FB07F106FB07F70CFB1D
:101F200006F402FB0CFC14EB074441EB17414FEAAB
:101F3000154714EB0C4441EB1C4125EA074C02FB0E
:101F400007F506FB07F70CFB06F602FB0CFC16EB8D
:101F5000074645EB174516EB0C4645EB1C4212199C
:101F600051F1000148BF7047B619524141EB0101E0
:101F7000A3F1010370474FEA14454FEA114724EAE1
:101F8000054621EA074C05FB07F106FB07F70CFBAA
:101F900006F24FF0000605FB0CFC12EB074241EB8A
:101FA000174112EB0C4251EB1C4148BF704792188D
:101FB00041EB0101A3F10103704700002DE9F0415D
:101FC00006462DED048BB0EE408A5548B0EEC80AA7
:101FD00010EE101AD0E90054524F8068B94206DA68
:101FE0003560C6E90140BDEC048BBDE8F0819FED92
:101FF0004E9A60EE890A80EE880A04F0E7FCDFED75
:102000004B0A04F0B7FDDFED4A0A04F08FFD4948A2
:10201000F0EE408AC0ED008AB0EEE80A10EE100A39
:102020009FED450AB84228EE008A02DAF0EE480A2F
:1020300015E0B0EE680A04F0C1FDF0EE400A9FED35
:102040003F1A89EE200A70EE410A30EE011A68EE5E
:10205000201A28EE011AC1EE800A81EE008AF5EE00
:10206000C00AF1EE10FA01DB012000E00020B5EE1D
:10207000C08A60F30704F1EE10FA01DB012000E0F2
:102080000020B0EEE00ADFED2E9AB5EEC00AB0EE09
:10209000C88AF1EE10FA60F30F2404DDF1EE040AB1
:1020A00004F044FD01E0B0EE690AB5EEC08AB0EE7E
:1020B000409AF1EE10FA06DDF1EE040AB0EE480A9D
:1020C00004F034FD01E0B0EE690ADFED1E9AB0EED7
:1020D000408AB0EE490AF0EE690A04F04BFDBCEE0E
:1020E000C00AF0EE690A10EE100AB0EE480A60F37A
:1020F0000F0504F03FFDBCEEC00A9FED141A10EE70
:10210000100A9FED110A60F31F4568EE800A80EE09
:10211000810A04F0D7FEC6E9005486ED020A62E7A0
:10212000EC8B00086F12833A2B87163ECDCCCC3E49
:10213000A470BDBE90000020D90E6043EE7CBF3D70
:102140000000000000FF7F4700003443DB0F4940E0
:10215000FEE770471FB5002100918DF80000FF20B9
:102160008DF8010066208DF802006B20019102912C
:1021700003918DF803000421684604F0DDFE1FBDC5
:102180007FB5002500958DF80000F6208DF8010040
:1021900001958DF80210089C100A8DF804208DF826
:1021A00003008DF805308DF806406B208DF8070090
:1021B000029503950821684604F0BEFE7FBD72B605
:1021C000FEE70000014800F062BA0000643300201E
:1021D00010B588B0182101A8FEF770FB4FF08040C1
:1021E000019002AA00200221012482E81300059038
:1021F000069001A9104800F05FF908B1FFF7DFFF72
:102200000123002202210C48009400F083F908B158
:10221000FFF7D5FF084800F05EFC08B1FFF7CFFFDD
:1022200000220121044800F0B2F8002801D0FFF795
:10223000C6FF08B010BD000064330020F0B5D1E93E
:1022400001650C692C430D68C6B145F080452C43EF
:10225000D1E90665354391F820704E69406D46EA34
:10226000076635438E8903EBC30300EBC30045EAE1
:102270000645E0E8024500230B4D0FE044EA8544A3
:10228000E6E7D418D65CE77846EA0766A77864786C
:102290003F0447EA0424264340C01B1DCC682C5D44
:1022A0009C42EED8F0BD00009C8B000810B590F861
:1022B000253000210122022B03D00421C16301211A
:1022C00022E003681C6824F00E041C60836C1C6808
:1022D00024F480741C6003681C6824F001041C60F2
:1022E00090F84430046C03F01F0302FA03F36360B8
:1022F000D0E913345C60436D33B11C6824F48074FE
:102300001C60D0E916345C6080F82520002280F83B
:102310002420084610BD70B590F825200024012126
:102320002346022A07D00422C26380F8251080F8D1
:102330002430012429E00268156825F00E05156097
:102340000268156825F001051560826C156825F492
:102350008075156090F84420056C02F01F0201FAA8
:1023600002F26A60D0E913255560426D32B11568FA
:1023700025F480751560D0E91625556080F8251084
:1023800080F82430816B01B18847204670BD30B59C
:1023900090F85C30012B07D0022B05D0016E41F084
:1023A00002010166012030BD0468A36D4D0701D014
:1023B000DD071DD011F0380F01D09D0718D511F49D
:1023C000E07F01D05D0713D511F4F05F01D01D0748
:1023D0000ED511F4604F01D0DD0609D511F4403F50
:1023E00001D09D0604D511F47C0F05D05D0603D401
:1023F000E56D45F00105E5654C0701D0DC071DD111
:1024000011F0380F01D09C0718D411F4E07F01D0EF
:102410005C0713D411F4F05F01D01C070ED411F443
:10242000604F01D0DC0609D411F4403F01D09C0676
:1024300004D411F47C0F06D05B0604D50368DC6D70
:1024400044F00204DC650B0604D5036853F8DC4F46
:1024500014431C60CB0504D5036853F8E04F1443C4
:102460001C600068426D0A434265002030BD70B5B3
:10247000044690F85C00022803D0206E40F008006B
:1024800007E02068D0F8C4309B0205D5206E40F4E8
:1024900000702066012070BDD0F8C400C0F3014573
:1024A0002B462046FFF7CAFE21680120A840C1F84C
:1024B000CC00A065002070BD10B590F85C20012A0A
:1024C00007D0022A05D0016E41F002010166012009
:1024D00010BD0A687AB10B7B0A690C7A42EA437331
:1024E0004A69406C496842EA847200EBC100C0E965
:1024F0000032002010BD0B7A4A690C8A42EA8372CE
:102500000B7B006CDB06496843EA04431A4340F83E
:102510002120EEE730B590F85C50039C012D05D0EA
:10252000016E41F004010166012030BD090100681F
:1025300041EA820141EA430150F8802F214322F011
:102540003F0211430160002030BD70477047006EAC
:10255000704700000068402905D0D0F8980000BFFF
:1025600000F00F007047D0F89000F9E7F0B590F850
:102570005C400025022C03D0016E41F0080160E0B0
:102580000468402946D0D4F89860360756D0D4F86D
:102590009860F60104D5D4F88060F60500D50125D1
:1025A000D4F89840C4F301246619C46C06EBC60540
:1025B00004EBC504256815F080455560256843D0B7
:1025C00025F06045156025682C4F05F00055956095
:1025D00020CC05F00045156134F8045BADB2D5613F
:1025E00054F8045CC5F30345D56054F8045C05F465
:1025F0008015556154F8045C05F40015956154F894
:10260000045CC5F30665156254F8045CED0F556271
:10261000002522E0D4F8906036070FD0D4F89060FF
:10262000F60104D5D4F88060B60500D50125D4F8AC
:102630009040C4F301246619846CB7E7016E41F43D
:10264000807101660120F0BDC5F38A45BAE700BF7D
:1026500014F805C003F805C06D1CD2F80CC017F8BB
:102660000CC0AC45F4D80068402903D0C0F89C6089
:102670000020F0BDC0F89460FAE700009C8B0008D1
:102680000068D0F8C40000F00700704770472DE9DB
:10269000F05F04460068016D426D01F4E05102EA0A
:1026A0000108016D426D01F0070102EA0109016DA7
:1026B000426D01F0380102EA010A016D476D01F433
:1026C00071010F40016D426D01F46021456D02EA18
:1026D000010B016DCE43710607D4E943490604D4CA
:1026E000402101652046FFF7D1FFF0050ED4E843F5
:1026F000C0050BD42068D0F8D820D0F8E0101140E5
:102700004FF480720265204600F0FDF9B8F1000038
:1027100005D0216808654146204600F0F6F9B9F178
:10272000000005D0216808654946204600F0B0F950
:10273000BAF1000005D0216808655146204600F036
:10274000C9F9B00509D4E843800506D421684FF4DF
:1027500000700865204600F0D9F930060DD4E84332
:1027600000060AD42068D0F8D420D0F8DC1011403C
:1027700080220265204600F0C7F9B00409D4E8437E
:10278000800406D421684FF400500865204600F00C
:10279000B9F9300409D4E843000406D421684FF4A1
:1027A00000400865204600F0ACF970040AD4E84304
:1027B000400407D421684FF480400865206E40F043
:1027C00080002066BBF1000005D0216808655946ED
:1027D0002046FFF7BBFE27B120680765206E38430F
:1027E0002066206E002802D02046FFF7AEFEBDE82E
:1027F000F09F00002DE9F041040006D0DFF8EC81E5
:1028000094F85C00002518B107E00120BDE8F081D4
:1028100084F85D50204600F0F3F82068816921F0CB
:102820001001816100F09EFA0646032705E000BF13
:1028300000F098FA801B0A2811D8206880690007E8
:10284000F6D42068816941F00101816100F08AFAC3
:1028500006460BE000F086FA801B0A2806D9206E97
:1028600040F00100206684F85C70CEE72068806943
:10287000C007EFD02068816941F0020181612168C1
:10288000414502D15A4960680860207C01282068CF
:10289000816937D041F040018161607C0128206866
:1028A000816932D021F480418161A07C01282068B7
:1028B00081692DD041F48051816120688169A268CD
:1028C00021F44071114381612068816921F0A401E4
:1028D00081612068016921F010010161E06801282F
:1028E00019D010B302281BD02068816941F0800103
:1028F00081612068016941F010010161E0680328ED
:102900000ED012E021F04001C6E741F48041CBE750
:1029100021F48051D0E72068816941F0040103E08F
:102920002068816941F020018161207EE2694006D2
:102930006FF0FF0101EB0222A0F100701043226A48
:10294000A38A521E10430A0202EB03431843236872
:10295000D861A068B0F5407F10D1D4E90A0301EB3B
:102960000321401E0843216B131303EB011108439D
:10297000A18C02EB014108432168C860206850F82F
:10298000C01FE26B114301601B4A21681948914244
:1029900000D11A48206451F8802FA38E22F4F81237
:1029A00042EA03420A6000F170016164216851F853
:1029B000802F94F8383022F0706242EA03620A6095
:1029C00000F1B001A164D831E164D831216518313A
:1029D0006165D83100E020C08842FCD3A56525663A
:1029E000012084F85C00002010E700000064004033
:1029F0000065004000A400400068004050A700406F
:102A000010B59AB00446142114A8FDF757FF5021C1
:102A10006846FDF753FF1C492068884231D1801475
:102A2000009040030D90684600F0C2FA08B1FFF72D
:102A3000C6FB1648816D41F000718165816D01F022
:102A400000711991C16C41F00101C164C06C14A9FD
:102A500000F0010019904FF4C0501490022015901E
:102A6000002016900120179009201890C00600F051
:102A70004FF800220521152000F002FA152000F081
:102A8000F1F91AB010BD00000064004000100240CF
:102A900070B5044600680C4A904214D1C80712D0A1
:102AA0000A4E012540212046FFF754FD00280AD098
:102AB000064B074A103340212046FFF757FD0028F8
:102AC000F0D13570EEE770BD006400409400002046
:102AD000002F0020704790F85C10012905D0016E8E
:102AE00041F00401016601207047022180F85C106A
:102AF00001688A6922F001028A61002101660846A4
:102B000070477047704770477047704770470000C4
:102B10002DE9F04FDFF82092002301260324A9F1CC
:102B2000040B85B00F2709F1040AABF1040EFAE09B
:102B300006FA03F52A407CD091F804C00CF0030C8F
:102B4000BCF1010F02D0BCF1020F26D1D0F808C0B1
:102B5000CDF800C04FEA430C04FA0CF8CDF810C0D1
:102B6000DDF800C02CEA080CCDF800C0D1F80C80CC
:102B7000DDF810C008FA0CF8DDF800C048EA0C08CF
:102B8000C0F80880D0F804C02CEA050C0D79C5F314
:102B900000159D4045EA0C0545600D79ED43AD07F4
:102BA0000ED0C5684FEA430804FA08FC25EA0C0574
:102BB000D1F808C00CFA08FC4CEA050CC0F80CC0AF
:102BC0000D7905F00305022D16D1DD0800EB850C0B
:102BD000CDF808C0DCF820805D074FEAD56C07FA15
:102BE0000CF528EA05080D6905FA0CF5DDF808C0B2
:102BF00045EA0805CCF8205005684FEA430CCDF8AB
:102C000008C004FA0CFC25EA0C0591F804C00CF08D
:102C10000308DDF808C008FA0CF848EA0508C0F80F
:102C200000804D6815F4403F7CD0444DD5F860C01D
:102C300000E077E04CF0010CC5F860C02D6E23F089
:102C4000030C05F0010500953D4D65440295AD6806
:102C50004FEA837C4FEA1C7807FA08FC25EA0C054A
:102C6000B0F1904F06D0DFF8DCC0604505D14FF0E1
:102C7000010C20E04FF0000C1DE0DFF8CCC06045F7
:102C800002D14FF0020C16E0DFF8C0C0604502D15F
:102C90004FF0030C0FE0DFF8B8C0604502D14FF0F1
:102CA000040C08E0DFF8ACC0604502D14FF0050C21
:102CB00001E04FF0060C0CFA08FC4CEA050C029DF2
:102CC000C5F808C0D9F80050CC46D1F80480954327
:102CD0005FEAC82800D51543CCF80050DAF8005058
:102CE000D446D1F8048095435FEA882800D515437F
:102CF000CCF80050DBF80050DC46D1F80480954356
:102D00005FEA883800D51543CCF80050DEF8005053
:102D1000F446D1F8048095435FEAC83800D51543DE
:102D2000CCF800505B1C0A6832FA03F57FF400AF60
:102D300005B0BDE8F08F000008040140001002401B
:102D4000000001400004004800080048000C004852
:102D500000100048001400480AB181617047816288
:102D600070470000014880687047000000000020A4
:102D70000248816842681144816070470000002069
:102D800010B50024032000F09BF80F2000F008F895
:102D900008B1012401E000F047F8204610BD000012
:102DA00030B505461B4887B0816D41F01001816543
:102DB000806D06A900F01000009001A800F05AFBF9
:102DC00000F078FB1449154AB0FBF1F11448491E94
:102DD0000260416040F2E7320021C0E903218160D6
:102DE00000F0CBFE040012D10D4800F015FF0400E6
:102DF0000DD1362000F036F8102D07D200222946DA
:102E0000362000F03DF80748056000E0012407B0D7
:102E1000204630BD0010024040420F00001000402C
:102E200080360020000000200D4808B5016E41F0FA
:102E300001010166016E01F001010091816D41F017
:102E400080518165806D002200F0805000900F213C
:102E5000901E00F015F8BDE8084000F0A1B8000091
:102E600000100240002809DB00F01F020121914000
:102E70004009800000F1E020C0F800117047000018
:102E8000F0B40E4B1B680C46C3F30223C3F10705D5
:102E9000042D00D90425191D072901D2002300E0C3
:102EA000DB1E012606FA05F1491E214099409E408D
:102EB000761E16403143F0BC03F078BD0CED00E007
:102EC000064900F0070208684FF6FF03184040EA81
:102ED0000220034A10430860704700000CED00E038
:102EE0000000FA052B492C4B0A6832214A432B4932
:102EF00040B1B0F5007F086829D020F4C06040F4EC
:102F000080602CE00868C0F34120022804D051F80A
:102F1000800F20F4807022E0D1F8800020F48070CF
:102F2000C1F88000086820F4C06040F400700860B8
:102F3000B2FBF3F0401C00E0401E4A69520501D587
:102F40000028F9D1486940050AD503207047C0F32D
:102F50004120022806D051F8800F40F480700860AC
:102F600000207047D1F8800040F48070C1F88000E4
:102F7000086820F4C06040F400700860B2FBF3F011
:102F8000401C00E0401E4A695205DBD50028F9D1FB
:102F9000D8E700000C00002040420F000070004005
:102FA0000248816841F480418160704700700040B0
:102FB0002DE9F843044600680026B54D00035ED5B0
:102FC000A86D0027C00008D4A86D40F08050A86507
:102FD000A86D012700F080500090DFF8B892D9F872
:102FE000001041F48071C9F80010FFF7BBFE804665
:102FF00006E000BFFFF7B6FEA0EB080002282BD8C2
:10300000D9F80000C005F5D5D5F8900010F440704F
:1030100014D0E16C814211D0D5F89000D5F8901011
:1030200020F4407041F48031C5F89010D5F890102C
:1030300021F48031C5F89010C5F89000C00711D078
:10304000FFF790FE804641F2883907E0FFF78AFEDD
:10305000A0EB0801494501D903260BE0D5F8900003
:103060008007F3D5D5F89000E16C20F44070084358
:10307000C5F890001FB1A86D20F08050A865207899
:10308000C00707D0D5F88800616820F00300084326
:10309000C5F888002078800707D5D5F88800A16892
:1030A00020F00C000843C5F888002078400707D5B9
:1030B000D5F88800E16820F030000843C5F88800A2
:1030C0002078000707D5D5F88800216920F0C000D6
:1030D0000843C5F888002078C00607D5D5F88800D1
:1030E000616920F440700843C5F8880020788006A4
:1030F00007D5D5F88800A16920F440600843C5F8D9
:1031000088002078400607D5D5F88800E16920F4CA
:1031100040500843C5F888002078000607D5D5F848
:103120008800216A20F440400843C5F888002088C0
:10313000C00507D5D5F88800616A20F440300843FF
:10314000C5F888002088800507D5D5F88800A16AD1
:1031500020F440200843C5F88800208840050FD59A
:10316000D5F88800E16A20F440100843C5F88800CB
:10317000E06AB0F5801F03D1E86840F48010E86091
:10318000208800050FD5D5F88800216B20F4400079
:103190000843C5F88800206BB0F5800F03D1E868BC
:1031A00040F48010E8602088C0040FD5D5F888006E
:1031B000616B20F040700843C5F88800606BB0F187
:1031C000807F03D1E86840F48010E86020884FF0E9
:1031D000006180040ED5D5F88800A26B20F0406015
:1031E0001043C5F88800A06B884203D1E86840F41A
:1031F0008010E860208840040ED5D5F88800E26B86
:1032000020F040601043C5F88800E06B884203D18D
:10321000E86840F48010E860208800040FD5D5F8F5
:103220008800216C20F040500843C5F88800206CCD
:10323000B0F1805F03D1E86840F48030E860206836
:10324000C0030FD5D5F88800616C20F040400843DA
:10325000C5F88800606CB0F1804F03D1E86840F495
:103260008030E860206840030FD5D5F89C00A16C41
:1032700020F440100843C5F89C00A06CB0F5001F76
:1032800003D1E86840F48010E8603046BDE8F88378
:1032900000100240007000402DE9F0470E46050086
:1032A0004FF0000725D0DFF8AC81D8F8000000F01F
:1032B0000F00B0420CD2D8F8001021F00F013143BA
:1032C000C8F80010D8F8000000F00F00B04210D18C
:1032D0002968614CC80741F2883A5AD06868DFF81B
:1032E0007C91032808D0022820682DD040050028B2
:1032F0002CDB0120BDE8F08720688001F9D5E0686B
:1033000000F00302E068C0F30310401C032A19D048
:10331000534A00BFB2FBF0F0E268C2F3062250430A
:10332000E268C2F34162521C5200B0FBF2F0484521
:1033300017D9A06810F0F00F0CD0880711D5A86835
:1033400040B10EE0474AE5E78003D0E700F0D6F849
:10335000484506D9A06820F0F00040F08000A06049
:103360008027A068696820F003000843A060FFF789
:10337000F9FC814606E000BFFFF7F4FCA0EB090171
:1033800051453AD8A068696800F00C00B0EB810F95
:10339000F2D12868810714D5400703D5A06840F40E
:1033A000E060A0602878000705D5A06820F4605090
:1033B00040F4E060A060A068A96820F0F000084335
:1033C00004E0802F03D1A06820F0F000A060D8F8BE
:1033D0000010404601F00F01B14216D9016821F0FA
:1033E0000F0131430160FFF7BDFC074607E000BF56
:1033F000FFF7B8FCC11B514501D903207AE7D8F883
:10340000000000F00F00B042F2D12878400705D547
:10341000A068E96820F4E0600843A060287800070D
:1034200006D5A068296920F4605040EAC100A06078
:1034300000F064F8A1680C4AC1F30311515C01F07B
:103440001F01C8400949086009480068BDE8F04705
:10345000FFF7A6BC002002400010024000B4C404E4
:103460000024F40000127A00D48B00080C00002025
:10347000000000200F2202600C4A936803F003034F
:103480004360936803F0F0038360936803F4E063A0
:10349000C36092684FF4E06303EAD2020261044819
:1034A000006800F00F000860704700000010024044
:1034B000002002400548064900688968054AC1F3B2
:1034C0000221515C01F01F01C84070470C00002030
:1034D00000100240E48B000805480649006889682E
:1034E000054AC1F3C221515C01F01F01C840704779
:1034F0000C00002000100240E48B0008184910B5B1
:103500008868C0F381021748012A0BD08A684310EB
:10351000C2F38102022A06D08A68C2F38102032A1A
:1035200003D0002010BD184610BDCA6802F0030485
:10353000CA68C2F30312521C032C02D0B0FBF2F093
:1035400001E0B3FBF2F0CA68C968C2F30622504337
:10355000C1F34161491C4900B0FBF1F010BD00000E
:10356000001002400024F4002DE9F84304007AD052
:103570002078F84DC00747D0A868E96800F00C0033
:1035800001F003010C2802D0082817D001E003291C
:1035900014D06068B0F5803F17D0B0F5A02F286830
:1035A00017D020F480302860286820F4802028601C
:1035B0006068E0B1FFF7D6FB064614E02868800398
:1035C00022D560680028D2D01EE0286840F4803000
:1035D000EDE740F480202860F7E700BFFFF7C2FB6B
:1035E000801B642870D828688003F7D50CE0FFF7AB
:1035F000B9FB064605E000BFFFF7B4FB801B64285B
:10360000F0D828688003F7D4207880074CD5A868C4
:10361000E96800F00C0001F003010C2802D0042836
:103620000DD001E002290AD0E068002828682BD0DC
:1036300040F480702860FFF795FB064619E0286883
:10364000400502D5E068002891D06868217C20F010
:10365000FE4040EA01606860BF480068FFF7A0FBD9
:10366000002800D120E072E1FFF77CFB801B0228DC
:10367000B8D828684005F7D56868217C20F0FE405E
:1036800040EA016068600FE020F480702860FFF776
:1036900069FB064605E000BFFFF764FB801B0228BC
:1036A000A0D828684005F7D42078000729D560699C
:1036B0000028D5F8940013D040F00100C5F894001C
:1036C000FFF750FB064606E090E000BFFFF74AFB1D
:1036D000801B022886D8D5F894008007F6D510E024
:1036E00020F00100C5F89400FFF73CFB064604E01B
:1036F000FFF738FB801B022878D8D5F894008007A4
:10370000F6D42078400761D5A86D0026C00008D403
:10371000A86D40F08050A865A86D012600F080508B
:1037200000908E480168C90511D40168804641F4B3
:1037300080710160FFF716FB074604E0FFF712FBFC
:10374000C01B022852D8D8F80000C005F6D5A068E2
:10375000012815D00528D5F8900016D020F00100DA
:10376000C5F89000D5F8900020F00400C5F890004E
:10377000A06841F28838B8B1FFF7F4FA07460EE0C6
:10378000D5F8900040F00100F0E740F00400C5F8E3
:103790009000F5E7FFF7E6FAC11B414526D8D5F8BA
:1037A00090008007F6D50CE0FFF7DCFA074604E04E
:1037B000FFF7D8FAC11B414518D8D5F8900080070B
:1037C000F6D41EB1A86D20F08050A8652078800640
:1037D00029D5A0690028D5F8980013D040F0010041
:1037E000C5F89800FFF7BEFA064606E075E000BF90
:1037F000FFF7B8FA801B02286FD8D5F89800800729
:10380000F6D510E020F00100C5F89800FFF7AAFAFD
:10381000064604E0FFF7A6FA801B02285DD8D5F81B
:1038200098008007F6D4E069F0B3A968C1F381017C
:1038300003295DD00228286820F08070286003D01A
:10384000FFF790FA04464BE0FFF78CFA064604E0D7
:10385000FFF788FA801B02283FD828688001F7D438
:10386000F4E908016FF00F0202EB01110843218A0D
:103870005204490802EB4151A26841EA022108437F
:10388000217D4FF07E42490802EB41610843217BD4
:1038900040EAC160E968324A11400843E86028689C
:1038A00040F08070286000E05EE0E86840F08070E2
:1038B000E860FFF757FA044605E000BFFFF752FA49
:1038C000001B022809D828688001F7D54CE000BF0A
:1038D000FFF748FA001B022802D90320BDE8F8834D
:1038E00028688001F4D4E8681E490840E8603BE09D
:1038F0000128F3D0E868226A00F00301914226D142
:10390000616A00F0F0020901103991421FD1A26AE8
:1039100000F4FE41B1EB022F19D194F82C2000F0F5
:103920007841B1EBC26F12D1218E00F4C002490878
:103930004905A1F50011914209D194F8341000F025
:10394000C06049084906A1F1007181420CD00120F4
:10395000C4E700000010024000000020007000409A
:103960000C809F01FCFFEEFE0020B7E770B504005D
:1039700009D0606A002540B125616561A56294F8AF
:103980005D0040B10CE0012070BD6068B0F5827F41
:10399000F4D0E561F2E784F85C50204600F05CF872
:1039A000022084F85D002068016821F04001016078
:1039B000E1684FF4E062914201D9002001E04FF448
:1039C0008050B1F5706F02D0914200D0A562A188FD
:1039D000228901F4827102F404421143227C02F034
:1039E00002021143227D02F001021143228B02F4F4
:1039F00000721143227F02F03802114394F8202014
:103A000002F080021143228D02F400521143226819
:103A10001160A169042202EA114194F8242000F403
:103A2000805002F01002114394F8342002F0080292
:103A30001143A28902F4706211430143206841607E
:103A40002068C16921F40061C1612566012084F804
:103A50005D00002070BD000010B586B00446142142
:103A60006846FCF72BFF1349206888421FD1124893
:103A7000816D41F480418165816D01F48041059142
:103A8000C16C41F00201C164C06C694600F00200E3
:103A900005904FF4604000900220019000200290B9
:103AA00003200390052004900448FFF731F806B086
:103AB00010BD000000380040001002400004004823
:103AC000704770477047704770477047F0B590F87F
:103AD0003C20012A40D0012580F83C50022280F889
:103AE0003D2003685A689C681C4E1D4FDFF874C067
:103AF000B34203D0BB4201D0634504D122F4700E1F
:103B00004A6842EA0E02DFF860E002EA0E02D1F8EB
:103B100000E04EEA020EC3F804E00268B2420FD0A1
:103B2000B2F1804F0CD0114B9A4209D0104B9A42FF
:103B300006D0BA4204D00F4B9A4201D0624504D15C
:103B4000896824F080031943916080F83D5000217A
:103B500080F83C100846F0BD0220F0BD002C01406A
:103B600000340140005001408FFFFFFD0004004081
:103B70000008004000400140704710B5040003D029
:103B800094F83D0010B107E0012010BD002084F83A
:103B90003C00204600F022F8022084F83D00211D60
:103BA000206801F03BFE012084F8480084F83E00C4
:103BB00084F83F0084F8400084F8410084F8420013
:103BC00084F8430084F8440084F8450084F84600F3
:103BD00084F8470084F83D00002010BD08B5016856
:103BE0000B48B1F1804F0BD00A4A914207D1816D49
:103BF00041F002018165806D00F00200009008BD77
:103C0000816D41F001018165806D00F00100F5E7F3
:103C1000001002400004004090F83D10012901D03E
:103C200001207047022180F83D100168CA6842F007
:103C30000102CA6000681149884211D0B0F1804F7A
:103C40000ED00F4988420BD00E49884208D00E4949
:103C5000884205D00D49884202D00D49884207D1DB
:103C600081680C4A1140062906D0B1F5803F03D087
:103C7000016841F00101016000207047002C014003
:103C800000040040000800400034014000400140B2
:103C9000005001400700010070B5044690F83C0058
:103CA0000025012815D0012684F83C60022084F804
:103CB0003D0022689068374B184020F47F409060A8
:103CC0000868B0F5805F28D010DC10F00F0F03D02B
:103CD00022E04FF0020070BD4FEA2012082A1BD2EA
:103CE000DFE802F0535353534B3941222A4BC21A97
:103CF00098424AD00ADCB0F5005F20D0B0F1101F26
:103D000043D0A0F58011203906D13EE0102A3CD0E6
:103D1000202A3AD0402A38D0012584F83D6000207E
:103D200084F83C00284670BDCB68D1E901212068A9
:103D300001F0EBFD2068816841F0770109E0CB6874
:103D4000D1E90121206801F0E0FD2068816841F49B
:103D500080418160E1E7CA684968206801F0AAFFF4
:103D60005021206806E0CA684968206801F0B3FF66
:103D70006021206801F0D4FDCFE7CA684968206857
:103D800001F098FF40212068F4E7226801461046C0
:103D9000F0E7000088FFCEFF300010007047000001
:103DA00030B50446002571B1042911D0082914D07A
:103DB0000C2917D0102918D094F8430094F8472004
:103DC000012817D114E094F83E0094F84420F7E756
:103DD00094F83F0094F84520F2E794F8400094F8F6
:103DE0004620EDE794F84100E8E794F84200E5E763
:103DF000012A01D0012030BD022079B1042916D05A
:103E000008291DD00C294CD010294DD084F843002E
:103E100084F847000C294AD0012540E084F83E0090
:103E200084F844002068C26842F0020210E084F87E
:103E30003F0084F845002068C26842F0040207E0B1
:103E400084F8400084F846002068C26842F0080206
:103E5000C2600122206801F04BFD174920688842AA
:103E600011D0B0F1804F0ED0144988420BD01449C4
:103E7000884208D01349884205D01349884202D0AD
:103E80001249884207D18168114A1140062906D09B
:103E9000B1F5803F03D0016841F00101016028467F
:103EA00030BD84F84100B3E784F84200B0E72068F1
:103EB000C26842F01002CBE7002C01400004004031
:103EC0000008004000340140004001400050014023
:103ED000070001002DE9F04104460068C668056945
:103EE0004FF00007A90713D5B10711D5F91E0161DD
:103EF00001202077206880698007204602D0FFF7E4
:103F00004DFF04E000F0E0F8204600F0A2F927772A
:103F1000680716D5700714D521686FF00400086192
:103F2000022020772068806910F4407F204602D06C
:103F3000FFF734FF04E000F0C7F8204600F089F9ED
:103F40002777280715D5300713D521686FF00800AB
:103F50000861042020772068C0698007204602D0CD
:103F6000FFF71CFF04E000F0AFF8204600F071F905
:103F70002777E80616D5F00614D521686FF01000F3
:103F80000861082020772068C06910F4407F20462F
:103F900002D0FFF703FF04E000F096F8204600F09F
:103FA00058F92777E80708D0F00706D021686FF0A6
:103FB00001000861204600F0D1F9280601D4A804C8
:103FC00008D5300606D521686FF4025008612046F6
:103FD000FFF777FDE80508D5300606D521686FF4B0
:103FE000807008612046FFF76BFD680608D57006F3
:103FF00006D521686FF040000861204600F0B8F94E
:10400000A80608D5B00606D521686FF02000086123
:104010002046FFF757FDE80208D5F00206D52168D3
:104020006FF4801008612046FFF74EFDA80208D506
:10403000B00206D521686FF4001008612046FFF732
:1040400042FD680208D5700206D521686FF4800031
:1040500008612046FFF739FD28020AD5300208D54D
:1040600021686FF4000008612046BDE8F041FFF7C9
:1040700083BDBDE8F081000010B586B00446142170
:104080006846FCF71BFC0E492068884216D10D4893
:10409000C16C41F00101C164C06C002100F001005D
:1040A0000590402000900220CDE901010121CDE9D9
:1040B000031069464FF09040FEF72AFD06B010BD90
:1040C0000004004000100240704770B5044690F8AC
:1040D0003C0000260D4601280BD0012084F83C004E
:1040E0000C2A4AD007DC82B1042A20D0082A06D143
:1040F00031E0022070BD102A53D0142A63D001266B
:10410000002084F83C00304670BD206801F012FCAD
:104110002068816941F0080181612068816921F08E
:1041200004018161206881692A69114311E02068D6
:1041300001F056FC2068816941F4006181612068CA
:10414000816921F480618161206881692A6941EA7D
:1041500002218161D4E7206801F092FC2068C169E6
:1041600041F00801C1612068C16921F00401C16109
:104170002068C1692A69114311E0206801F0D0FC70
:104180002068C16941F40061C1612068C16921F4FE
:104190008061C1612068C1692A6941EA0221C16167
:1041A000AEE7206801F00CFD2068016D41F00801C8
:1041B00001652068016D21F0040101652068016D31
:1041C0002A69114311E0206801F036FD2068016D75
:1041D00041F4006101652068016D21F48061016591
:1041E0002068016D2A6941EA0221016588E710B55E
:1041F000040003D094F83D0010B107E0012010BD89
:10420000002084F83C00204600F022F8022084F8C8
:104210003D00211D206801F001FB012084F84800C9
:1042200084F83E0084F83F0084F8400084F84100A0
:1042300084F8420084F8430084F8440084F8450080
:1042400084F8460084F8470084F83D00002010BD43
:104250007047704770B50446022269B1042912D034
:10426000082917D00C291CD0102921D094F843001C
:10427000012824D0012070BD94F83E000128F9D116
:1042800084F83E201DE094F83F000128F2D184F824
:104290003F2016E094F840000128EBD184F840203C
:1042A0000FE094F841000128E4D184F8412008E0AF
:1042B00094F842000128DDD184F8422001E084F81E
:1042C00043200122206801F013FB1B4920681B4A90
:1042D0001B4B1C4D88420BD0904209D0984207D00E
:1042E000194EB04204D0194EB04201D0A84203D1B9
:1042F000466C46F400464664206888420ED0B0F111
:10430000804F0BD01249884208D01249884205D00C
:10431000904203D0984201D0A84207D181680E4A4A
:104320001140062906D0B1F5803F03D0016841F065
:1043300001010160002070BD002C014000340140EB
:10434000004001400050014000440140004801404D
:104350000004004000080040070001000068034915
:10436000884201D1FEF704BD7047000000100040F4
:10437000704790F88410012918D0012180F884102A
:104380002421C0F8881001680A680B6823F0010333
:104390000B6022F000510022426603681960202160
:1043A000C0F8881080F884201046704702207047BB
:1043B0007047704770B5044690F8840001281DD0FE
:1043C000012084F884002420C4F88800206805684F
:1043D000026822F0010202602068826822F06062B6
:1043E0000A438260204601F0A1FC2068056020207D
:1043F000C4F88800002084F8840070BD022070BDDD
:1044000070B5044690F8840001281DD0012084F87E
:1044100084002420C4F8880020680568026822F01F
:10442000010202602068826822F060420A438260D2
:10443000204601F07BFC206805602020C4F888003D
:10444000002084F8840070BD022070BD7047704762
:1044500070B5044600680E490E25884207D10D4804
:104460000068056201220C490A4800F0B1FA0B49C4
:10447000206888420AD10A4800680562BDE8704099
:1044800005490122491C064800F0A2BA70BD00008F
:1044900000380140C4340020C10000200048004022
:1044A000EC3500202DE9F04103680446D86919680D
:1044B0009A6840F60F0528424FF000054FF00206BB
:1044C0000AD187067ED501F0200702F0805C57EA0A
:1044D0000C0777D0616F42E1B64FDFF8DCC21740BE
:1044E00001EA0C0C57EA0C0C6CD05FEAC07C0CD0D3
:1044F0005FEAC15C09D54FF0010CC3F820C0D4F8C5
:10450000903043F00103C4F89030830709D5D307F6
:1045100007D023681E62D4F8903043F00403C4F837
:10452000903043070AD5D30708D0266804233362A6
:10453000D4F8903043F00203C4F8903003070CD550
:1045400001F020033B4308D0266808233362D4F8E7
:10455000903043F00803C4F8903003050BD54B01AD
:1045600009D526684FF400633362D4F8903043F0E5
:104570002003C4F89030D4F89030002B3DD0800652
:1045800009D501F0200002F08051084303D0616F8B
:1045900009B120468847D4F8900021688968490607
:1045A00002D410F0280F2AD0204601F0A5FC206884
:1045B000806840061ED52068083050E8001F21F0B2
:1045C000400100E021E040E80012002AF3D1D4F8D5
:1045D000800078B179498163D4F88000FDF79BFEB3
:1045E00000280AD0D4F88000816B00E02046BDE8A6
:1045F000F04108472046FFF72BFFBDE8F081204639
:10460000FFF726FFC4F89050F7E7D4F86CC02027D6
:10461000BCF1010F7ED15FEAC06C7BD55FEAC16C53
:1046200078D51020186220688068400651D5D4F8EB
:1046300080100A6850680004000C3ED0B4F85C306A
:1046400083423AD9A4F85E000868006880062CD43A
:10465000216851E8000F20F4807041E80002002A30
:10466000F6D12068083050E8001F21F0010140E831
:104670000012002AF5D12068083050E8001F21F010
:10468000400140E80012002AF5D1C4F88C70E566BC
:10469000216851E8000F20F0100041E80002002AD4
:1046A000F6D1D4F88000FDF701FE2667B4F85C006F
:1046B000B4F85E10401A81B207E0B4F85C10814291
:1046C0009BD11068800698D526672046FFF770FEBC
:1046D00093E7B4F85C00B4F85E10401A81B2B4F805
:1046E0005E00002889D0002987D0226852E8000F98
:1046F00020F4907042E80003002BF6D12D4BDB43F1
:104700002068083050E8002F1A4040E8002CBCF127
:10471000000F00E00EE0F3D1C4F88C70E566656729
:10472000206850E8002F22F0100240E80023002B00
:10473000F6D1C9E7C60209D5560207D54FF4801055
:1047400018622046BDE8F041FFF781BE03060AD596
:1047500001F0800302F40002134304D0A16F00298A
:104760007FF444AF49E7420611D54A060FD52046EB
:10477000016851E8002F22F0400241E80023002B9D
:10478000F6D1C0F88870856700F0C3F935E70202FA
:1047900006D54A0004D52046BDE8F041FFF756BED5
:1047A000C00195D5002993DA2046BDE8F041FFF716
:1047B00000BE00000100001020010004E55E0008BA
:1047C00010B5040003D0D4F8880010B107E0012030
:1047D00010BD002084F88400204600F027F8242033
:1047E000C4F888002068016821F001010160A06A16
:1047F00010B1204601F0BCFA204601F00FFE01285E
:10480000E6D02068416821F49041416020688168C9
:1048100021F02A0181602068016841F001010160F6
:104820002046BDE8104001F007BB00002DE9F04F25
:104830009BB0044614216846FCF740F8502105A8B7
:10484000FCF73CF85D4920685D4C072501260227EE
:104850004FF0904A4FF4806B4FF00008884234D1FB
:10486000CDE9056805A8FEF7A3FB08B1FDF7A7FC95
:10487000206E40F480402066206E00F48040199045
:10488000E06C40F00100E064E06C344600F00100B0
:1048900019904FF400708DE88101694656465046E4
:1048A000CDE90345FEF734F9CDF800B0CDE9017448
:1048B00069463046CDE90345FEF72AF90022052175
:1048C0002520FEF7DDFA252038E03E494FF00409A7
:1048D000884238D105A8CDF81C800597FEF768FB03
:1048E00008B1FDF76CFCA06D40F40030A065A06D30
:1048F00000F400301990E06C40F00100E064E06CDE
:10490000CDF8009000F001003C461990CDE9014837
:10491000CDE90365694657465046FEF7F9F8082089
:104920008DE85100CDE9036569463846FEF7F0F899
:10493000002205212620FEF7A3FA2620FEF792FA90
:104940001BB0BDE8F08F20498842F9D105A8CDF809
:104950001490CDF82080FEF72BFB08B1FDF72FFC5B
:10496000A06D40F48020A065A06D00F48020199017
:10497000E06C40F00200E064E06CCDF800B000F0C4
:1049800002001990CDE90365104CCDE90178694624
:104990002046FEF7BDF84FF400600090CDE90176A7
:1049A000CDE9036569462046FEF7B2F800220521ED
:1049B0002720FEF765FA2720C0E7000000380140F5
:1049C000001002400044004000480040000400483D
:1049D00030B4D0F88C30202B02D0022030BC70478D
:1049E000A9B1A2B10023C3660A4C0368A3420BD04D
:1049F0005B681B0208D5046854E8003F43F08063FD
:104A000044E80035002DF6D130BC01F053BE012042
:104A1000E4E700000080004010B5044600680C493F
:104A2000884206D101F032FF01220A490A48FFF705
:104A3000CFFF0A492068884209D101F05DFF05498E
:104A40000122BDE81040491C0548FFF7C1BF10BD59
:104A500000380140C1000020C4340020004800405C
:104A6000EC3500202DE9F8430446D0F8880098463C
:104A700016460D46202802D00220BDE8F883A5B1D5
:104A80009EB10020C4F890002120C4F8880018349A
:104A9000FEF768F9A6878146E68754F8100C2027B0
:104AA000183CB0F5805F02D003E00120E5E7206903
:104AB00010B12E46002510E000260EE08021204691
:104AC00001F080FEC0B9DEB116F8010B21688862E2
:104AD000B4F85600401EA4F85600B4F856004B46F1
:104AE0004FF00002CDF800800028E7D14FF04001E0
:104AF000204601F067FE40B1C4F888700320BCE78F
:104B000035F8020BC0F30800E0E7C4F88870002015
:104B1000B3E7704710B5FDF75BFB11490E2009683C
:104B2000086210490968086201220F490C48FFF722
:104B30004FFF01220D490B48FFF74AFF00210C48A7
:104B4000FFF788FB04210A48FFF784FB0821084887
:104B5000FFF780FBBDE8104000210648FFF720B9B1
:104B6000C4340020EC350020C1000020C200002029
:104B7000783400202C340020FEE700002DED048B5B
:104B800084B0334E334FDFF8D080DFF8D090DFF8B9
:104B9000D0A09FED348A9FED349ADFED348ADFF8A0
:104BA000D0B000BF00F00EFB30880121009031A38F
:104BB0000622084600F012FC3888009030A3062236
:104BC0000921012000F00AFCD8F8000003F036FFAC
:104BD00004460D46D9F8000003F030FF0A468DE880
:104BE00035002AA306221121012000F0F7FB9AEDDF
:104BF000000A38EE400AC0EE080AB0EE680A00EE7D
:104C0000890A10EE100A03F019FFCDE9000123A371
:104C100006221B21012000F0E1FB9BF8010000901F
:104C200021A306222521012000F0D8FB214800689D
:104C300003F004FFCDE900011FA306222F2101206C
:104C400000F0CCFB00F07CFC0A2002F0AAFAA9E7F5
:104C5000B0000020AE000020BC000020B800002002
:104C6000B4000020000034430000FA440000FA437E
:104C70004D33002072696768745F763A20256400BE
:104C80006C6566745F763A2025640000563A2025EC
:104C90002E3266202C573A252E32660050574D3A58
:104CA000252E326600000000797579696E3A255824
:104CB0000000000090000020616E676C653A252EB0
:104CC000326600001CB5184B0728D3E90323CDE951
:104CD00000238DF8010013D0192811D022280FD0FD
:104CE00023280DD001228DF802208DF803109DF8A5
:104CF0000020491C104408448DF8040005210FE0F1
:104D000002228DF8022000228DF803209DF8002059
:104D10008DF804101044801C08448DF8050006210D
:104D2000684600F0EBFF1CBD2494000870B58EB0FF
:104D30000D46064630216C4601A8FBF7BFFD194819
:104D4000806800902846FBF74DFD401D8DF802005D
:104D50008DF80360042003E02154401CC0B26D1C98
:104D600029780029F8D12A212154401CC0B23F21C2
:104D70002154401CC0B22154401CC0B22154401CDC
:104D8000C1B2002005E0235C625C401C1A446254FE
:104D9000C0B28842F7D3491CC9B2684600F0AEFFE2
:104DA0000EB070BD24940008124810B5104901607F
:104DB000002141608160C1600174417481741122DD
:104DC000426101221023C0E906230323C0E908320F
:104DD0008262C262C0E90C218163C163FDF70AFDF2
:104DE000002803D0BDE81040FDF7E9B910BD000070
:104DF000006400406433002010B5154A00211548B6
:104E000002F00AFA144C124A00212060243213489E
:104E100002F002FA0E4A606048320021104802F0A7
:104E2000FBF90B4AA0606C3200210E4802F0F4F945
:104E3000074AE060903200210B4802F0EDF9044A85
:104E40002061B4320021094802F0E6F9606110BD2A
:104E50003894000875570008140200209D56000879
:104E6000FD5600087D680008E96800087D4B0008D1
:104E7000F0B587B014216846FBF720FD2B48C16CC4
:104E800041F00401C164C16C01F004010591C16CE1
:104E900041F02001C164C16C01F020010591C16C99
:104EA00041F00101C164C16C01F001010591C16CC7
:104EB00041F00201C164C06C012200F002001C4EEE
:104EC0005403059021463046FDF746FF194F012255
:104ED0004FF486513846FDF73FFF0125CDE90045E7
:104EE00000240294694630460394FDF711FE28031E
:104EF000CDE900050320CDE9024069463846FDF7BB
:104F000007FE40201126CDE9000669463846CDE966
:104F10000245FDF7FDFD80200090CDE90164694662
:104F200038460394FDF7F4FD07B0F0BD00100240D1
:104F30000008004800040048124810B510490160FC
:104F40004FF48271416000214FF4E062C0E9021227
:104F50004FF400720161C0E905122022C0E9072167
:104F600007224162C0E90A12016308214163FEF78A
:104F7000FDFC002803D0BDE81040FDF720B910BDAE
:104F800000380040C833002010B588B0002416480F
:104F90000094019402940394049405944FF080418A
:104FA0000694C0E90014611EC0E9024104618461F5
:104FB000FEF7E3FD08B1FDF702F94FF480500090D1
:104FC00069460948FEF768FE08B1FDF7F8F8049451
:104FD00004A905480694FEF779FD002801D0FDF7E5
:104FE000EEF808B010BD00002C34002010B58EB0D3
:104FF00000240794089409940A940B940C941C219F
:1050000068460D94FBF75AFC1E481D490160AA2111
:10501000C0E9011444F61F61C0E903148461FEF77E
:10502000ACFD08B1FDF7CBF84FF48050079007A90D
:105030001448FEF731FE08B1FDF7C1F81148FFF73B
:10504000D6F808B1FDF7BBF80B940BA90D480D94E9
:10505000FEF73CFD08B1FDF7B2F86020CDE9000491
:1050600002940022694607480494FFF72EF808B11D
:10507000FDF7A5F80348FEF7FFFF0EB010BD0000D6
:105080000004004078340020184810B5164901602B
:105090004FF4E1314160002181600C22C160C0E920
:1050A00004128161C161016241628162FFF788FB84
:1050B00008B1FDF784F800210C48FFF7A1F908B109
:1050C000FDF77DF800210948FFF774F908B1FDF7F5
:1050D00076F80648FFF74DF9002803D0BDE81040E8
:1050E000FDF76DB810BD000000380140C434002049
:1050F000184810B5164901604FF41651416000215F
:1051000081600C22C160C0E904128161C161016249
:1051100041628162FFF754FB08B1FDF750F80021AE
:105120000C48FFF76DF908B1FDF749F8002109486F
:10513000FFF740F908B1FDF742F80648FFF719F903
:10514000002803D0BDE81040FDF739B810BD0000BD
:105150000044004058350020184810B51649016039
:105160004FF416514160002181600C22C160C0E9FA
:1051700004128161C161016241628162FFF720FB1B
:1051800008B1FDF71CF800210C48FFF739F908B108
:10519000FDF715F800210948FFF70CF908B1FDF7F4
:1051A0000EF80648FFF7E5F8002803D0BDE81040E8
:1051B000FDF705B810BD000000480040EC350020A8
:1051C000FEE7FEE710B50021074C0A46002004EB7D
:1051D000C1131A54401CC0B28028FAD3491CC9B26A
:1051E0000829F3D310BD0000282F0020F0B57F2838
:1051F0002AD83F2928D88418802C02D9C0F18002EF
:10520000D2B2CC18402C02D9C1F14003DBB2012646
:10521000DFF838E087180B4414E001F0070206FAC3
:1052200002F5CA0804460EEBC21207E012F804C0E9
:105230002CEA050C02F804C0641CE4B2A742F5D8BD
:10524000491CC9B28B42E8D8F0BD0000282F0020CD
:1052500010B586B000204FF47A720021491C9142AB
:10526000FCD3401C9042F8D31748C16C41F00401B4
:10527000C164C16C01F004010591C16C41F00101F0
:10528000C164C06C142100F0010005906846FBF772
:1052900015FB112001900120029003200390802033
:1052A0000A4C009069462046FDF732FC40200090F1
:1052B00069462046FDF72CFC012000F055F901203D
:1052C00000F066F906B010BD00100240000400486E
:1052D00070B500240646802525FA04F0304000D041
:1052E000012000F055F9012000F03EF9002000F007
:1052F0003BF9641CE4B2082CEED3012000F034F931
:10530000BDE87040002000F02FB910B5012000F07A
:105310003FF9012000F028F9002000F039F9BDE83C
:105320001040002000F020B910B5002000F030F946
:10533000012000F019F9BDE81040012000F028B963
:1053400010B5FFF785FFAE2000F036F9D52000F04C
:1053500033F9802000F030F9A82000F02DF93F202B
:1053600000F02AF9D32000F027F9002000F024F9FA
:10537000402000F021F9A12000F01EF9C82000F023
:105380001BF9DA2000F018F9122000F015F981203D
:1053900000F012F9CF2000F00FF9D92000F00CF93D
:1053A000F12000F009F9DB2000F006F9302000F0D0
:1053B00003F9A42000F000F9A62000F0FDF88D20EC
:1053C00000F0FAF8142000F0F7F8AF2000F0F4F83D
:1053D000FFF7F8FEBDE8104000F0B2B80FB470B5AA
:1053E00088B014460D46064610AA68460F99FBF78A
:1053F000B1F823466A462946304600F08BF808B0DB
:1054000070BC5DF814FB10B50C4640F0B00000F025
:10541000D3F8102040EA141000F0CEF804F00F008A
:10542000BDE8104000F0C8B808B5082B0DD0062B19
:105430000AD10A4B02EB420203EB4202C03A00924D
:105440000823062200F00EF808BD054B03EB0212FC
:10545000A2F50072102300920822F3E7E8910008F9
:10546000F88B00082DE9FC4F1F4615460C460646F2
:105470007F284BD83F2C49D8FFF7B8FE791ECA17B2
:10548000002001EB52710122DFF884B004F007091B
:1054900002EBE10238E0002332E0F1187F2931D835
:1054A00000EBD40ABAF1070F30D80BEBCA1E1EF876
:1054B000017010FB05FCCDF804C0DDF82C80984489
:1054C000CDF800801CF808C00CFA09FC47EA0C076C
:1054D0000EF801700AF10107072F0FD80EEB010833
:1054E000DDE900C198F8807011F80CC0C9F108011D
:1054F0002CFA01FC47EA0C0788F880705B1CDBB2D1
:10550000AB42CAD3401CC0B28242C4DCBDE8FC8FAF
:10551000282F00202DE9F0411E46154688460746F3
:10552000002408E014FB0670C0B233464146FFF782
:105530007BFF641CE4B22A5D002AF3D1BDE8F08150
:1055400070B5084D002400212046FFF75CFF05EBF5
:10555000C410802100F041F8641CE4B2082CF2D39E
:1055600070BD0000282F002008B5024640210748E2
:10557000FDF7F2FB002002E0BDF80000401CADF892
:105580000000BDF800000328F6D308BD0004004861
:1055900008B5024680210748FDF7DEFB002002E047
:1055A000BDF80000401CADF80000BDF80000032865
:1055B000F6D308BD0004004810B50446FFF7A5FE69
:1055C0007820FFF785FE0020FFF782FE2046FFF7D8
:1055D0007FFEBDE81040FFF7A7BE70B50D4606463A
:1055E000FFF793FE7820FFF773FE4020FFF770FE71
:1055F000002404E0305DFFF76BFE641CE4B2AC42B3
:10560000F8D3BDE87040FFF78FBE0000F8B51F4625
:105610000D46DDE9061301291FD00121012B1ED003
:105620005FF001044FF4FA73984200D900209D42C4
:1056300000D90025D3B20126024603200096FCF7CC
:105640009FFDFBB221462A4604200096FCF798FDF8
:10565000BDE8F8400020FCF77DBD0021DEE7002416
:10566000E0E700000A4810B5017800290FD0094989
:105670000C780021017002F0F5FA074850F8241068
:105680000220FFF753FBBDE8104002F00BBB10BD3A
:105690000B0200200C020020AC0100202DED028B3B
:1056A00082B0104C9FED108A104D114E114FDFF853
:1056B000488000BF94ED000A38EE400A00F028F858
:1056C000012001F06EFD29783078CDE90001E12359
:1056D0001A463988B8F80000FFF798FF142001F047
:1056E00060FDE7E7B400002000003443AD00002077
:1056F000AC000020B0000020AE00002032211320BA
:10570000FFF7E0FAFFF7AEFF142001F04AFDF9E7DA
:1057100010EE100A0F4A1049904202DD9FED0F0A69
:1057200005E010EE100A884201DA9FED0D0A9FEDA8
:105730000D1A0F49C0EE010A9FED0B1A9FED0B0ADF
:10574000096800EE810ABCEEC00A10EE100A486338
:1057500070470000000020430000A04100002043EB
:1057600000004842000034430000FA440000FA43BD
:1057700078340020012001F014FDFBE710B54FF054
:10578000E020006902F072FF012803D0BDE810405C
:1057900002F0A0BC10BD00B593B038216846FBF7FD
:1057A0008DF814210EA8FBF789F80020FDF79AFB6D
:1057B0000220C1010391402104910421CDE9080197
:1057C00000905521CDE90A1007900C900D90684685
:1057D000FDF7CAFE08B172B6FEE70F200E90032057
:1057E0000F90002010901190129004210EA8FDF748
:1057F00053FD002801D072B6FEE713B000BD0000D3
:105800000248016841F470010160704788ED00E0D2
:105810000148FEF75FBB0000803600202DE9F0470D
:1058200002682B4B2B4E2C4F2C4C2D4D4FF0804AA9
:10583000984209D0504507D0B04205D0B84203D0B5
:10584000A04201D0A84204D122F0700C4A6842EA7A
:105850000C02DFF890C0DFF89080DFF8909098425B
:105860000FD050450DD0B0420BD0B84209D0A04265
:1058700007D0604505D0404503D0484501D0A84237
:1058800003D122F44076CA6832434E6922F0800286
:10589000324302608A68C2620A688262984209D012
:1058A000A04207D0604505D0404503D0484501D00F
:1058B000A84201D109690163012141610169C90758
:1058C00003D0016921F001010161BDE8F08700000A
:1058D000002C01400004004000080040003401405A
:1058E0000050014000400140004401400048014098
:1058F00010B501F01F030121046A99408C43046232
:10590000016A9A401143016210BD10B5846842EAF1
:10591000032224F47F440A432243826010BD000026
:105920008268034B1A400A4342F0070181607047C6
:105930008FFFCFFF2DE9F047056A026A22F00102CE
:105940000262436882691F4C25F0020522400C6800
:1059500022F0030214438A681C4E2A431A4D1C4F3E
:10596000DFF870C0DFF87090DFF870A0A84209D0AF
:10597000B04207D0B84205D0604503D0484501D0B9
:10598000504506D122F00808CA6842EA080222F00F
:105990000402A84209D0B04207D0B84205D0604501
:1059A00003D0484501D0504505D14D6923F44073DB
:1059B0001D438B692B4343608461496841630262E4
:1059C000BDE8F0878FFFFEFF002C0140003401404E
:1059D00000400140004401400048014000500140A7
:1059E000F0B5056A026A22F0100202624268836919
:1059F0001C4C1E4E23400C6823F4407343EA0424DD
:105A000025F020038D681A4F43EA0513164DA8426E
:105A100003D0B04201D0B84207D1D1F80CC023F076
:105A2000800343EA0C1323F04003A8420CD0B04299
:105A30000AD0104DA84207D00F4DA84204D00F4DF8
:105A4000A84201D0B84207D14D6922F4406242EA2F
:105A500085028D6942EA85024260846149688163FA
:105A60000362F0BDFF8FFFFE002C014000340140B7
:105A70000050014000400140004401400048014006
:105A8000F0B5056A026A22F4807202624368C26954
:105A90001C4C1E4E22400C6822F00302144325F4D5
:105AA00000728D681A4F42EA0522174DA84203D0B2
:105AB000B04201D0B84207D1D1F80CC022F4006244
:105AC00042EA0C2222F48062A8420CD0B0420AD0F2
:105AD000104DA84207D0104DA84204D00F4DA84247
